{
  "contractName": "Registry",
  "abi": [
    {
      "inputs": [],
      "payable": false,
      "stateMutability": "nonpayable",
      "type": "constructor"
    },
    {
      "anonymous": false,
      "inputs": [
        {
          "indexed": false,
          "internalType": "string",
          "name": "hashDocumento",
          "type": "string"
        },
        {
          "indexed": false,
          "internalType": "string",
          "name": "hashMetadados",
          "type": "string"
        },
        {
          "indexed": false,
          "internalType": "bool",
          "name": "exists",
          "type": "bool"
        }
      ],
      "name": "addNotarization",
      "type": "event"
    },
    {
      "anonymous": false,
      "inputs": [
        {
          "indexed": false,
          "internalType": "address",
          "name": "reg",
          "type": "address"
        }
      ],
      "name": "addRegister",
      "type": "event"
    },
    {
      "anonymous": false,
      "inputs": [
        {
          "indexed": false,
          "internalType": "string",
          "name": "prop",
          "type": "string"
        }
      ],
      "name": "transProperty",
      "type": "event"
    },
    {
      "constant": true,
      "inputs": [
        {
          "internalType": "string",
          "name": "",
          "type": "string"
        }
      ],
      "name": "notarizations",
      "outputs": [
        {
          "internalType": "string",
          "name": "hashDocumento",
          "type": "string"
        },
        {
          "internalType": "string",
          "name": "hashMetadados",
          "type": "string"
        },
        {
          "internalType": "bool",
          "name": "exists",
          "type": "bool"
        }
      ],
      "payable": false,
      "stateMutability": "view",
      "type": "function"
    },
    {
      "constant": true,
      "inputs": [],
      "name": "notarizationsCount",
      "outputs": [
        {
          "internalType": "uint256",
          "name": "",
          "type": "uint256"
        }
      ],
      "payable": false,
      "stateMutability": "view",
      "type": "function"
    },
    {
      "constant": true,
      "inputs": [
        {
          "internalType": "uint256",
          "name": "",
          "type": "uint256"
        }
      ],
      "name": "registers",
      "outputs": [
        {
          "internalType": "address",
          "name": "",
          "type": "address"
        }
      ],
      "payable": false,
      "stateMutability": "view",
      "type": "function"
    },
    {
      "constant": true,
      "inputs": [
        {
          "internalType": "string",
          "name": "hash",
          "type": "string"
        }
      ],
      "name": "isNotarized",
      "outputs": [
        {
          "internalType": "bool",
          "name": "res",
          "type": "bool"
        }
      ],
      "payable": false,
      "stateMutability": "view",
      "type": "function"
    },
    {
      "constant": true,
      "inputs": [
        {
          "internalType": "address",
          "name": "addr",
          "type": "address"
        }
      ],
      "name": "isRegister",
      "outputs": [
        {
          "internalType": "bool",
          "name": "res",
          "type": "bool"
        }
      ],
      "payable": false,
      "stateMutability": "view",
      "type": "function"
    },
    {
      "constant": true,
      "inputs": [],
      "name": "numRegisters",
      "outputs": [
        {
          "internalType": "uint256",
          "name": "num",
          "type": "uint256"
        }
      ],
      "payable": false,
      "stateMutability": "view",
      "type": "function"
    },
    {
      "constant": false,
      "inputs": [
        {
          "internalType": "address",
          "name": "reg",
          "type": "address"
        }
      ],
      "name": "adicionarRegister",
      "outputs": [],
      "payable": false,
      "stateMutability": "nonpayable",
      "type": "function"
    },
    {
      "constant": false,
      "inputs": [
        {
          "internalType": "string",
          "name": "hmetadata",
          "type": "string"
        },
        {
          "internalType": "string",
          "name": "hash",
          "type": "string"
        }
      ],
      "name": "adicionarNotarization",
      "outputs": [],
      "payable": false,
      "stateMutability": "nonpayable",
      "type": "function"
    },
    {
      "constant": false,
      "inputs": [
        {
          "internalType": "string",
          "name": "hmetadata",
          "type": "string"
        },
        {
          "internalType": "string",
          "name": "hash",
          "type": "string"
        }
      ],
      "name": "transferirPropriedade",
      "outputs": [],
      "payable": false,
      "stateMutability": "nonpayable",
      "type": "function"
    },
    {
      "constant": true,
      "inputs": [],
      "name": "getRegistersLength",
      "outputs": [
        {
          "internalType": "uint256",
          "name": "count",
          "type": "uint256"
        }
      ],
      "payable": false,
      "stateMutability": "view",
      "type": "function"
    },
    {
      "constant": true,
      "inputs": [
        {
          "internalType": "string",
          "name": "s",
          "type": "string"
        }
      ],
      "name": "calculateHash",
      "outputs": [
        {
          "internalType": "bytes32",
          "name": "res",
          "type": "bytes32"
        }
      ],
      "payable": false,
      "stateMutability": "pure",
      "type": "function"
    },
    {
      "constant": true,
      "inputs": [
        {
          "internalType": "string",
          "name": "hashDoc",
          "type": "string"
        }
      ],
      "name": "getHMetadata",
      "outputs": [
        {
          "internalType": "string",
          "name": "hmetadata",
          "type": "string"
        }
      ],
      "payable": false,
      "stateMutability": "view",
      "type": "function"
    }
  ],
  "bytecode": "0x608060405234801561001057600080fd5b506112a7806100206000396000f3fe608060405234801561001057600080fd5b50600436106100b45760003560e01c806373ca4a5b1161007157806373ca4a5b146103c0578063a053514e14610464578063a8cbcecd1461046c578063aeb18c4e14610510578063af53cc5014610629578063c2bff2e714610631576100b4565b80630e275d1d146100b95780631d1d1af4146100e157806322fdef941461011a5780634f3517c314610154578063568376731461027d57806356b7097214610297575b600080fd5b6100df600480360360208110156100cf57600080fd5b50356001600160a01b03166107be565b005b6100fe600480360360208110156100f757600080fd5b503561089a565b604080516001600160a01b039092168252519081900360200190f35b6101406004803603602081101561013057600080fd5b50356001600160a01b03166108c1565b604080519115158252519081900360200190f35b6100df6004803603604081101561016a57600080fd5b810190602081018135600160201b81111561018457600080fd5b82018360208201111561019657600080fd5b803590602001918460018302840111600160201b831117156101b757600080fd5b91908080601f0160208091040260200160405190810160405280939291908181526020018383808284376000920191909152509295949360208101935035915050600160201b81111561020957600080fd5b82018360208201111561021b57600080fd5b803590602001918460018302840111600160201b8311171561023c57600080fd5b91908080601f016020809104026020016040519081016040528093929190818152602001838380828437600092019190915250929550610918945050505050565b610285610af2565b60408051918252519081900360200190f35b6100df600480360360408110156102ad57600080fd5b810190602081018135600160201b8111156102c757600080fd5b8201836020820111156102d957600080fd5b803590602001918460018302840111600160201b831117156102fa57600080fd5b91908080601f0160208091040260200160405190810160405280939291908181526020018383808284376000920191909152509295949360208101935035915050600160201b81111561034c57600080fd5b82018360208201111561035e57600080fd5b803590602001918460018302840111600160201b8311171561037f57600080fd5b91908080601f016020809104026020016040519081016040528093929190818152602001838380828437600092019190915250929550610b54945050505050565b610140600480360360208110156103d657600080fd5b810190602081018135600160201b8111156103f057600080fd5b82018360208201111561040257600080fd5b803590602001918460018302840111600160201b8311171561042357600080fd5b91908080601f016020809104026020016040519081016040528093929190818152602001838380828437600092019190915250929550610de8945050505050565b610285610e56565b6102856004803603602081101561048257600080fd5b810190602081018135600160201b81111561049c57600080fd5b8201836020820111156104ae57600080fd5b803590602001918460018302840111600160201b831117156104cf57600080fd5b91908080601f016020809104026020016040519081016040528093929190818152602001838380828437600092019190915250929550610e5c945050505050565b6105b46004803603602081101561052657600080fd5b810190602081018135600160201b81111561054057600080fd5b82018360208201111561055257600080fd5b803590602001918460018302840111600160201b8311171561057357600080fd5b91908080601f016020809104026020016040519081016040528093929190818152602001838380828437600092019190915250929550610ed3945050505050565b6040805160208082528351818301528351919283929083019185019080838360005b838110156105ee5781810151838201526020016105d6565b50505050905090810190601f16801561061b5780820380516001836020036101000a031916815260200191505b509250505060405180910390f35b610285611084565b6106d56004803603602081101561064757600080fd5b810190602081018135600160201b81111561066157600080fd5b82018360208201111561067357600080fd5b803590602001918460018302840111600160201b8311171561069457600080fd5b91908080601f01602080910402602001604051908101604052809392919081815260200183838082843760009201919091525092955061108a945050505050565b60405180806020018060200184151515158152602001838103835286818151815260200191508051906020019080838360005b83811015610720578181015183820152602001610708565b50505050905090810190601f16801561074d5780820380516001836020036101000a031916815260200191505b50838103825285518152855160209182019187019080838360005b83811015610780578181015183820152602001610768565b50505050905090810190601f1680156107ad5780820380516001836020036101000a031916815260200191505b509550505050505060405180910390f35b6107c7816108c1565b15610819576040805162461bcd60e51b815260206004820152601f60248201527f53656e64657220697320616c7265616479207265676973746572656421212100604482015290519081900360640190fd5b600080546001810182559080527f290decd9548b62a8d60345a988386fc84ba6bc95484008f6362f93160ef3e5630180546001600160a01b0383166001600160a01b0319909116811790915560408051918252517f35a804d7b4780cd9fe87baf8efa89770c1126d5a7bf151cff9386db369514bf79181900360200190a150565b600081815481106108a757fe5b6000918252602090912001546001600160a01b0316905081565b6000805b60005481101561091257826001600160a01b0316600082815481106108e657fe5b6000918252602090912001546001600160a01b0316141561090a5760019150610912565b6001016108c5565b50919050565b6001816040518082805190602001908083835b6020831061094a5780518252601f19909201916020918201910161092b565b51815160001960209485036101000a0190811690199190911617905292019485525060405193849003019092206002015460ff16151560011491506109d89050576040805162461bcd60e51b815260206004820152601860248201527f446f63756d656e7420646f6573206e6f74206578697374730000000000000000604482015290519081900360640190fd5b816001826040518082805190602001908083835b60208310610a0b5780518252601f1990920191602091820191016109ec565b6001836020036101000a03801982511681845116808217855250505050505090500191505090815260200160405180910390206001019080519060200190610a549291906111da565b507f45fbee4531135f5e25532a4122b8fae501f232a2af57b35f0f453f866522aba3816040518080602001828103825283818151815260200191508051906020019080838360005b83811015610ab4578181015183820152602001610a9c565b50505050905090810190601f168015610ae15780820380516001836020036101000a031916815260200191505b509250505060405180910390a15050565b6000610afd336108c1565b1515600114610b4c576040805162461bcd60e51b815260206004820152601660248201527529b2b73232b9103737ba1030baba3437b934bd32b21760511b604482015290519081900360640190fd5b506000545b90565b6001816040518082805190602001908083835b60208310610b865780518252601f199092019160209182019101610b67565b51815160209384036101000a600019018019909216911617905292019485525060405193849003019092206002015460ff16159150610c0e9050576040805162461bcd60e51b815260206004820152601760248201527f446f63756d656e7420616c726561647920657869737473000000000000000000604482015290519081900360640190fd5b60028054600190810190915560408051606081018252838152602080820186905281830184905291518451919392859282918401908083835b60208310610c665780518252601f199092019160209182019101610c47565b51815160209384036101000a6000190180199092169116179052920194855250604051938490038101909320845180519194610ca7945085935001906111da565b506020828101518051610cc092600185019201906111da565b50604091820151600291909101805460ff191691151591909117905580516001918101829052606080825283519082015282517f9dc6abd07d5702f19fe450c13252004b4df243efd14a547215ebf5f1ff0fbdba92849286928190602080830191608084019188019080838360005b83811015610d47578181015183820152602001610d2f565b50505050905090810190601f168015610d745780820380516001836020036101000a031916815260200191505b50838103825285518152855160209182019187019080838360005b83811015610da7578181015183820152602001610d8f565b50505050905090810190601f168015610dd45780820380516001836020036101000a031916815260200191505b509550505050505060405180910390a15050565b60006001826040518082805190602001908083835b60208310610e1c5780518252601f199092019160209182019101610dfd565b51815160209384036101000a600019018019909216911617905292019485525060405193849003019092206002015460ff16949350505050565b60025481565b6000816040516020018082805190602001908083835b60208310610e915780518252601f199092019160209182019101610e72565b6001836020036101000a038019825116818451168082178552505050505050905001915050604051602081830303815290604052805190602001209050919050565b60606001826040518082805190602001908083835b60208310610f075780518252601f199092019160209182019101610ee8565b51815160209384036101000a600019018019909216911617905292019485525060405193849003019092206002015460ff169150610f8e9050576040805162461bcd60e51b815260206004820152601860248201527f446f63756d656e207420646f6573206e6f742065786973740000000000000000604482015290519081900360640190fd5b6001826040518082805190602001908083835b60208310610fc05780518252601f199092019160209182019101610fa1565b518151600019602094850361010090810a8201928316921993909316919091179092529490920196875260408051978890038201882060019081018054601f600293821615909802909501909416049485018290048202880182019052838752909450919250508301828280156110785780601f1061104d57610100808354040283529160200191611078565b820191906000526020600020905b81548152906001019060200180831161105b57829003601f168201915b50505050509050919050565b60005490565b8051602081830181018051600180835293830194830194909420939052825460408051600294831615610100026000190190921693909304601f81018390048302820183019093528281529183918301828280156111295780601f106110fe57610100808354040283529160200191611129565b820191906000526020600020905b81548152906001019060200180831161110c57829003601f168201915b505050505090806001018054600181600116156101000203166002900480601f0160208091040260200160405190810160405280929190818152602001828054600181600116156101000203166002900480156111c75780601f1061119c576101008083540402835291602001916111c7565b820191906000526020600020905b8154815290600101906020018083116111aa57829003601f168201915b5050506002909301549192505060ff1683565b828054600181600116156101000203166002900490600052602060002090601f016020900481019282601f1061121b57805160ff1916838001178555611248565b82800160010185558215611248579182015b8281111561124857825182559160200191906001019061122d565b50611254929150611258565b5090565b610b5191905b80821115611254576000815560010161125e56fea265627a7a72315820cbb8b08abd095ef2943346a841bc4a96d218fe2d14c600d46ccf2cd71946df7a64736f6c63430005100032",
  "source": "pragma solidity >=0.4.22 <0.9.0;\n\ncontract Registry {\n\n  \t// Identificador\n  \taddress[] public registers;\n\n\n  \tstruct Document {\n    \t// Hash do documento\n    \tstring hashDocumento;\n    \t// Hash metadados\n    \tstring hashMetadados;\n    \t// Usado para verificar so para a verificacao da existencia\n    \tbool exists;\n  \t}\n\n  \tmapping (string => Document) public notarizations;\n  \tuint public notarizationsCount;\n\n\n  \t//eventos teste\n  \tevent addRegister(\n  \t\taddress reg\n  \t);\n\n  \tevent addNotarization(\n    \tstring hashDocumento,\n    \tstring hashMetadados,\n    \tbool exists\n  \t);\n\n  \tevent transProperty(\n  \t\tstring prop\n  \t);\n\n\n  \t// The smart contract's constructor\n  \tconstructor() public {\n\n  \t}\n\n  \t// Verificar se um documento se encontra notarizado\n  \tfunction isNotarized(string memory hash) public view returns (bool res){\n  \t\treturn notarizations[hash].exists;\n  \t}\n\n\n  \t// Verificar se é um register\n  \tfunction isRegister(address addr) public view returns (bool res) {\n  \t\tres = false;\n  \t\tfor (uint i = 0; i < registers.length; i++) {\n  \t\t\tif (registers[i] == addr) {\n  \t\t\t\tres = true;\n          break;\n        }\n      }\n      return res;\n  \t}\n\n    function numRegisters() public view returns (uint num){\n      return registers.length;\n    }\n\n  \t// Adicionar um novo register\n  \tfunction adicionarRegister(address reg) public{\n  \t\trequire(!isRegister(reg), \"Sender is already registered!!!\");\n  \t\tregisters.push(reg);\n  \t\temit addRegister(reg);\n  \t}\n\n\n  \t// Adicionar um novo documento notarizado\n  \tfunction adicionarNotarization(string memory hmetadata, string memory hash) public {\n        require(!notarizations[hash].exists, \"Document already exists\");\n\n\t\tnotarizationsCount++;\n        notarizations[hash] = Document(hash,hmetadata,true);\n        emit addNotarization(hash,hmetadata,true);\n  \t}\n\n\n  \t// Transferencia de propriedade de um documento(alteracao dos metadados)\n  \tfunction transferirPropriedade(string memory hmetadata, string memory hash) public {\n  \t\trequire(notarizations[hash].exists == true, \"Document does not exists\");\n\n  \t\tnotarizations[hash].hashMetadados = hmetadata;\n  \t\temit transProperty(hash);\n  \t}\n\n\n  \t// Obter o numero de registadores de documentos registados\n    function getRegistersLength() public view returns (uint count) {\n        require(isRegister(msg.sender) == true, \"Sender not authorized.\");\n        return registers.length;\n    }\n\n\n  \t// Ver melhor!!\n  \tfunction calculateHash(string memory s) public pure returns (bytes32 res) {\n  \t\treturn keccak256(abi.encodePacked(s));\n  \t}\n\n\n    // Função que retorna o hash dos metadados de um determinado documento\n    function getHMetadata(string memory hashDoc) public view returns (string memory hmetadata){\n      require(notarizations[hashDoc].exists, \"Documen t does not exist\");\n      return notarizations[hashDoc].hashMetadados;\n    }\n\n}\n",
  "sourcePath": "C:/Users/nelso/Desktop/Universidade/Laboratorios em Engenharia Informatica/Git/trunk/BlockNotarization/smartNotarization/contracts/Registry.sol",
  "compiler": {
    "name": "solc",
    "version": "0.5.16+commit.9c3226ce.Emscripten.clang"
  },
  "schemaVersion": "3.3.4",
  "updatedAt": "2021-06-14T17:47:40.829Z",
  "networkType": "ethereum",
  "devdoc": {
    "methods": {}
  },
  "userdoc": {
    "methods": {}
  }
}